:1008BF00E4F52CF52BF52AF529C203C200C202C2BA
:1008CF0001120D817E0C7FAD8E108F1175120C757C
:1008DF0013BF75140C7515F4EE54E070030209D3B1
:1008EF00752D00752E808E2F8F30C3742E9FFF7441
:1008FF000D9ECF2402CF3400FEE48F288E27F526DD
:10090F00F525F524F523F522F521AF28AE27AD26E1
:10091F00AC25AB24AA23A922A821C3120F92502AD7
:10092F00E52E2524F582E52D3523F58374CDF0E4EE
:10093F00FAF9F8E5242401F524EA3523F523E935FE
:10094F0022F522E83521F52180C0E4F524F523F5C1
:10095F0022F521AF28AE27AD26AC25AB24AA23A9BB
:10096F0022A821C3120F925035AE23AF24E5302FAA
:10097F00F582E52F3EF583E0FDE52E2FF582E52D7F
:10098F003EF583EDF0E4FAF9F8EF2401F524EA3EA1
:10099F00F523E93522F522E83521F52180B5852D9E
:1009AF0010852E1174AD2480FF740C34FFFEC3E547
:1009BF00139FF513E5129EF512C3E5159FF515E587
:1009CF00149EF514D2E843D820907F95E044C0F0F0
:1009DF00907FAFE04401F0907FAEE0441DF0D2AFC6
:1009EF00200145200105D205120D30E4F52CF52B21
:1009FF00F52AF5297F407E927D047C00AB2CAA2B33
:100A0F00A92AA829C3120F9250D62001D3E4FAF9CC
:100A1F00F8E52C2401F52CEA352BF52BE9352AF5D1
:100A2F002AE83529F52980CC538EF83001051205B7
:100A3F00D0C20130031A120DF45015C20312101751
:100A4F00200007907FD6E020E7F3121038120DFD3B
:050A5F0012008080D6AA
:010A6400226F
:1005D000907FE9E070030207641470030207E024CF
:1005E000FE700302085724FB700302075E147003B9
:1005F00002075814700302074C14700302075224B8
:100600000560030208AB1210F440030208B7907FA4
:10061000EBE024FE601914604524026003020742E7
:10062000E510907FD4F0E511907FD5F00208B790E7
:100630007FEAE0FF120E9EAA06A9077B018B318A92
:10064000328933EA49600DEE907FD4F0EF907FD588
:10065000F00208B7907FB4E04401F00208B7907F41
:10066000EAE0FF120F21AA06A9077B018B318A322B
:090670008933EA497003020738DE
:10067900AB318B388A39893A120F79F53B907FEE85
:10068900E0FFE53BD39F4003E0F53BE53B70030208
:10069900072AE4F537F536F535F534E53BC39440DB
:1006A9005004AF3B80027F40E4FCFDFEAB37AA3625
:1006B900A935A834C3120F925036E53A2537F58289
:1006C900E5393536F583E0FF74002537F582E434E2
:1006D9007FF583EFF0E4FAF9F8E5372401F537EA15
:1006E9003536F536E93535F535E83534F53480AB49
:1006F900E53BC394405004AF3B80027F40907FB5F7
:10070900EFF0E53BC394405004AF3B80027F40C308
:10071900E53B9FF53B907FB4E020E203020694801D
:0C072900F4E4907FB5F0907FB47402F00F
:100735000208B7907FB4E04401F00208B7907FB497
:10074500E04401F00208B71210D20208B71210E80F
:100755000208B71210E00208B71210C40208B71257
:1007650010F640030208B7907FE8E0247F60241468
:1007750060312402705BA200E433FF25E0FFA20292
:10078500E4334F907F00F0E4A3F0907FB57402F05E
:100795000208B7E4907F00F0A3F0907FB57402F0F3
:1007A5000208B7907FECE0F45480FFC4540FFFE0DB
:1007B50054072F25E024B4F582E4347FF583E05413
:1007C50001907F00F0E4A3F0907FB57402F0020879
:1007D500B7907FB4E04401F00208B71210F8400367
:1007E5000208B7907FE8E024FE601D240260030242
:1007F50008B7907FEAE0B40105C2000208B7907F10
:10080500B4E04401F00208B7907FEAE0703B907FC6
:10081500ECE0F45480FFC4540FFFE054072F25E0AB
:1008250024B4F582E4347FF583E4F0907FECE05462
:1008350080FF131313541FFFE054072F907FD7F049
:03084500E4F5389F
:10084800E04420F08069907FB4E04401F0806012B9
:1008580010FA505B907FE8E024FE60182402704F85
:10086800907FEAE0B40104D2008044907FB4E04471
:1008780001F0803B907FEAE07020907FECE0F45438
:1008880080FFC4540FFFE054072F25E024B4F582FD
:10089800E4347FF5837401F08015907FB4E044015F
:1008A800F0800C120E585007907FB4E04401F0908D
:0608B8007FB4E04402F0F1
:0108BE002217
:030033000210F0C8
:0410F00053D8EF32B0
:100A650060941202120100020000004047050210C6
:100A75000000010200010A0600020000004001001A
:100A850009022700010100A0320904000003FF004C
:100A9500000007058202000200070584020002002B
:100AA5000705860200020009022700010100A032A5
:100AB5000904000003FF0000000705820240000052
:100AC5000705840240000007058602400000040374
:100AD500090410034300790070007200650073007B
:100AE5007300160345005A002D00550053004200BF
:080AF5002000530058003200FC
:100D8100907FDE7454F0907FDF7444F0E4907FC96B
:100D9100F0907FD1F0907FB27400F0A37480F09056
:100DA1007FAFE04402F0E054FBF0120B8C907F9691
:100DB1007401F0907F9CE04401F0E4907F96F00490
:070DC100F0E4F50CF50D2232
:10008000907FC8E030E1030205A8907DC0E0700CCD
:10009000A3E0FFA3E0FD120DC80205A3907DC0E020
:1000A00064017034A3E044C0FC7D007F04120FCCD7
:1000B000907FB8E020E1F9907F9BE020E2F97C128C
:1000C0007D007F04120EE0901200E0907E00F09020
:1000D0007FB97401F00205A3907DC0E06402600363
:1000E0000201CEA3E0753300F534A3E0FEE4EE4256
:1000F00033E4907FC9F0FD7CB07F04120FCCE5346F
:10010000C4F8540FC868E533C454F048540FFC7D5C
:10011000007F04120FCCE534540FFC7D007F0412E5
:100120000FCCE533540FFC7D007F04120FCCE53378
:10013000C4F854F0C868FEE534C4540F48EE540FB8
:10014000FC7D007F04120FCCE534453370030205BB
:10015000A3D3E5349440E53394004005753D4080D9
:100160000385343D907FC8E020E1F9E4F531F532B4
:10017000C3E532953DE5319400503E74C02532F51B
:1001800082747D3531F583E075F010A4E5F0540FED
:10019000FC7D007F04120FCC74C02532F582747D83
:1001A0003531F583E0540FFC7D007F04120FCC0540
:1001B00032E5327002053180B7E4907FC9F0C3E5C3
:1001C00034953DF534E5339400F533020148907DD4
:1001D000C0E0640360030202FFF533753406FD7C62
:1001E000B07F04120FCCE534C4F8540FC868E5336F
:1001F000C454F048540FFC7D007F04120FCCE5344A
:10020000540FFC7D007F04120FCCE533540FFC7DAE
:10021000007F04120FCCE533C4F854F0C868FEE543
:1002200034C4540F48EE540FFC7D007F04120FCCF1
:10023000907DC1E075F010A4E5F0540FFC7D007FC7
:1002400004120FCC907DC1E0540FFC7D007F04129E
:100250000FCC907DC2E075F010A4E5F0540FFC7D4A
:10026000007F04120FCC907DC2E0540FFC7D007F14
:1002700004120FCC907DC3E075F010A4E5F0540F8C
:10028000FC7D007F04120FCC907DC3E0540FFC7DF9
:10029000007F04120FCC907DC4E075F010A4E5F04F
:1002A000540FFC7D007F04120FCC907DC4E0540FEE
:1002B000FC7D007F04120FCC907DC5E075F010A48A
:1002C000E5F0540FFC7D007F04120FCC907DC5E05B
:1002D000540FFC7D007F04120FCC907DC6E075F0BA
:1002E00010A4E5F0540FFC7D007F04120FCC907D2C
:1002F000C6E0540FFC7D007F04120FCC0205A390D2
:100300007DC0E064047051907FB8E020E1F9E4F52D
:1003100031F5327D007CF27F04120FCC907F9BE0A0
:1003200020E2F97C127D007F04120EE0901200E0C2
:10033000FF74002532F582E4347EF583EFF0053258
:10034000E53270020531C39408E531940040C49051
:100350007FB97408F00205A3907DC0E06405707653
:10036000FD7CF37F04120FCC907F9BE020E2F97CB0
:10037000127D007F04120EE0901200E0F50F750E62
:1003800000907FB8E020E1F9E4F531F532C3E532C1
:10039000950FE531950E50357D007CF17F04120FED
:1003A000CC907F9BE020E2F97C127D007F04120E4E
:1003B000E0901200E0FF74002532F582E4347EF50F
:1003C00083EFF00532E5327002053180C0907FB9CD
:1003D000E50FF00205A3907DC0E064FD6003020418
:1003E000B37DE27F06120DC87DE27F07120DC87D46
:1003F000E27F08120DC87DE27F09120DC87D127FD1
:100400000A120DC8E4FD7F0B120DC87D127F0C127D
:100410000DC8E4FD7F0D120DC87D127F0E120DC8B0
:10042000E4FD7F0F120DC87D127F10120DC8E4FD90
:100430007F11120DC87DF07F20120DC8E4F531F553
:1004400032AD32AC317F03120FCC0532E53270028F
:100450000531C3E531940140E8E4F531F532AD32C0
:10046000AC317F02120FCC0532E53270020531C388
:10047000E531940140E8E4F531F532AD32AC317F3D
:1004800001120FCC0532E53270020531C3E531941B
:100490000140E8E4F531F532AD32AC31E4FF120F42
:1004A000CC0532E53270020531C3E531940140E8F4
:1004B0000205A3907DC0E064FE7039907DC2E075B6
:1004C0003300F534A3E0FEE4EE4233E4F531F532D7
:1004D000C3E5329534E531953340030205A3907DA1
:1004E000C1E0FFAD32AC31120FCC0532E532700203
:1004F000053180DC907DC0E0F460030205A3F53394
:10050000753494FD7CB07F04120FCCE534C4F854EC
:100510000FC868E533C454F048540FFC7D007F04D5
:10052000120FCCE534540FFC7D007F04120FCCE594
:1005300033540FFC7D007F04120FCCE533C4F85414
:10054000F0C868FEE534C4540F48EE540FFC7D003B
:100550007F04120FCCE4F531F532C3E5329534E572
:10056000319533503E74022532F58274123531F5DF
:1005700083E075F010A4E5F0540FFC7D007F0412B9
:100580000FCC74022532F58274123531F583E054B4
:100590000FFC7D007F04120FCC0532E5327002059E
:1005A0003180B7E4907FC9F0907FBCE020E12090DB
:1005B0007F9BE020E2197C127D007F04120EE05048
:0F05C0000E901200E0907D00F0907FBD7401F06E
:0105CF002209
:100DC8008D3EEF4480FC7D007F04120FCCE53E751C
:100DD800F010A4E5F0540FFC7D007F04120FCCE561
:0C0DE8003E540FFC7D007F04120FCC2253
:090DF400907FAFE04408F0D32227
:020DFD00D322FF
:0210F400D32205
:0810E000907FEAE0F50BD3223A
:0E10C400907F00E50BF0907FB57401F0D32211
:0810E800907FEAE0F508D32235
:0E10D200907F00E508F0907FB57401F0D32206
:0210F600D32203
:0210F800D32201
:0210FA00D322FF
:100E5800907FE9E0245E60210470397C127D00E413
:100E6800FF120EE0E433907F00F0907FB57401F03C
:100E7800907FB4E04402F0C32290783974FFF09078
:100E88007F0074A2F0907FB57401F0907FB4E044C5
:060E980002F0C322D32288
:10105200C0E0C083C082D2015391EF907FAB740194
:08106200F0D082D083D0E0320F
:10108200C0E0C083C0825391EF907FAB7404F0D074
:0610920082D083D0E032A1
:10109800C0E0C083C0825391EF907FAB7402F0D060
:0610A80082D083D0E0328B
:1010AE00C0E0C083C0825391EF907FAB7410F0D03C
:0610BE0082D083D0E03275
:010DFF0032C1
:10106A00C0E0C083C082D2035391EF907FAB740873
:08107A00F0D082D083D0E032F7
:0110FC0032C1
:0110FD0032C0
:0110FE0032BF
:0110FF0032BE
:0111000032BC
:0111010032BB
:0111020032BA
:0111030032B9
:0111040032B8
:0111050032B7
:0111060032B6
:0111070032B5
:0111080032B4
:0111090032B3
:01110A0032B2
:01110B0032B1
:100CAD001201000100000040470502100100000084
:100CBD00000109023500010100A000090400000532
:100CCD00FF000000070582024000000705020240F8
:100CDD000000070584024000000705860240000061
:100CED0007050602400000040309041A0341006EC3
:100CFD0000630068006F0072002000430068006907
:100D0D0000700073001C0345005A002D0055005360
:100D1D000042002000440065007600690063006514
:030D2D00000000C3
:10103800907FD6E030E712E04401F07F147E001282
:0A1048000FA3907FD6E054FEF022C3
:10101700907FD6E04480F043870100000000002263
:070D3000907FD6E04408F0BB
:030D3700E4F531AF
:040D3A00E054FBF096
:030D3E00E4F531A8
:100D4100E04408F0300504E04402F07FDC7E051247
:100D51000FA3907F92E030E3077FDC7E05120FA3A3
:100D6100907FAB74FFF0907FA9F0907FAAF0539130
:080D7100EF907FD6E054F7F08B
:030D7900E4F5316D
:050D7C00E04404F02238
:020F2100A9071E
:100F2300AE14AF158F828E83A3E064037017AD01F7
:100F330019ED7001228F828E83E07C002FFDEC3E41
:090F4300FEAF0580DF7E007F0097
:010F4C002282
:100E9E00E4FEAC12AD138D828C83A3E06402702D40
:100EAE00AB060EEBB50705AF05AE04228D828C8323
:100EBE00A3A3E0F53CA3E0F53D623CE53C623DE5D5
:100ECE003D623C2DFBE53C3CFCAD0380C97E007FC2
:010EDE000013
:010EDF0022F0
:100FA3008E328F33907F92E030E30BE53325E0F50B
:100FB30033E53233F532E5331533AE327002153291
:090FC3004E600512102780EE2299
:101027007400F58690FDA57C05A3E582458370F9DC
:011037002296
:03004300020E00AA
:100E000002105200021098000210820002106A00C4
:100E10000210AE00020DFF000210FC000210FD00E7
:100E20000210FE000210FF0002110000021101007A
:100E30000211020002110300021104000211050058
:100E40000211060002110700021108000211090038
:080E500002110A0002110B005F
:100AFD00608012960801013F017FFCE001000201B8
:100B0D0000810000FF3C3C3F3F3FFF3F003F3F3F28
:100B1D003F3FD8FC0101013F0101FCE00000024113
:100B2D00C0000000FFF2F2FFFFFFFF3F001B7F7FC1
:100B3D00FF3FD8FCE4E8ECF0F4F8FCE00000000026
:100B4D0000000000FFFFFFFFFFFFFF3F0024486C88
:100B5D0090B4D8FCE4E8ECF0F4F8FCE00000000000
:100B6D0000000000FFFFFFFFFFFFFF3F0024486C68
:0E0B7D0090B4D8FC4713168000003F061B11F1
:100B8C00E4907839F0901316E0907838F0901317C1
:100B9C00E0907827F0901318E0907825F0901319D6
:100BAC00E0907826F090131AE090784AF090131B9E
:100BBC00E0907824F090781CE0FF90131CE0FEEF9E
:100BCC004E90781CF07531127532967E797F0075D7
:100BDC003379753400E4FFFE0532E532AC31700236
:100BEC00053114F5828C83E0FD0534E534AA3370AD
:100BFC0002053314F5828A83EDF00FBF00010EEF6E
:100C0C0064804E70D390785E7406F0D2EA90784986
:040C1C00E04401F0BF
:010C200022B1
:01110C0022C0
:100FF400E4FE90782AEFF0907835EDF0907825E0D3
:1010040020E70E0EEED394F040F29078397401F09C
:0210140022D3E5
:0110160022B7
:100FCC00E4FB90782AEFF0907834EDF0907835ECE3
:100FDC00F0907825E020E70E0BEBD394F040F290E4
:070FEC0078397401F022D3F3
:010FF30022DB
:100F4D00E4FB90782AEFF0907835E0FE907825E07C
:100F5D0020E70E0BEBD394F040F29078397401F04A
:0B0F6D0022907836E08D828C83F0D358
:010F78002256
:100EE000E4FB90782AEFF0907835E0FEEBC394F0C5
:100EF00050080B907825E030E7F2907825E030E755
:100F000018907836E0FE907834E0FBEEEBFF8D82AF
:100F10008C83EEF0A3EFF0D32290783974FFF0C306
:010F200022AE
:03000000020C21CE
:0C0C2100787FE4F6D8FD75813E020C6877
:100F7900BB010689828A83E0225002E722BBFE0276
:090F8900E32289828A83E49322A9
:100F9200EB9FF5F0EA9E42F0E99D42F0E89C45F0B5
:010FA200222C
:100C2D000208BFE493A3F8E493A34003F68001F216
:100C3D0008DFF48029E493A3F85407240CC8C333C8
:100C4D00C4540F4420C8834004F456800146F6DF97
:100C5D00E4800B0102040810204080900A65E47EB8
:100C6D00019360BCA3FF543F30E509541FFEE4938C
:100C7D00A360010ECF54C025E060A840B8E493A353
:100C8D00FAE493A3F8E493A3C8C582C8CAC583CA7E
:100C9D00F0A3C8C582C8CAC583CADFE9DEE780BE36
:010B8B000069
:00000001FF
