:0A0A5B000001020203030404050574
:1003B400E4F513F512F511F510C203C200C202C22E
:1003C400011206827E007F908E238F24752B007588
:1003D4002CA27521007522AC752900752ACC752DC7
:1003E40000752EEC90E680E030E70E85212585220D
:1003F40026852927852A28800C852925852A26856E
:100404002127852228EE54E0700302052775140085
:100414007515807E007F908E168F17C374189FFF0A
:1004240074019ECF2402CF3400FEE48F0F8E0EF5AC
:100434000DF50CF50BF50AF509F508AF0FAE0EAD89
:100444000DAC0CAB0BAA0AA909A808C3120A4A509E
:100454002AE515250BF582E514350AF58374CDF0EC
:10046400E4FAF9F8E50B2401F50BEA350AF50AE993
:100474003509F509E83508F50880C0E4F50BF50AF7
:10048400F509F508AF0FAE0EAD0DAC0CAB0BAA0A17
:10049400A909A808C3120A4A5037E517250BF582A3
:1004A400E516350AF583E0FFE515250BF582E5141D
:1004B400350AF583EFF0E4FAF9F8E50B2401F50BBE
:1004C400EA350AF50AE93509F509E83508F5088039
:1004D400B385142385152474902480FF740034FF9D
:1004E400FEC3E52C9FF52CE52B9EF52BC3E5269F3B
:1004F400F526E5259EF525C3E5289FF528E5279EE5
:10050400F527C3E5229FF522E5219EF521C3E52ABF
:100514009FF52AE5299EF529C3E52E9FF52EE52DA5
:100524009EF52DD2E843D82090E668E04409F09087
:10053400E65CE0443DF0D2AF90E680E020E105D2F5
:100544000512091E90E680E054F7F0538EF8C203BA
:1005540030010512011AC201300329120A6D502418
:10056400C2031209A520001690E682E030E704E0F9
:1005740020E1EF90E682E030E604E020E0E41209B6
:090584004D120A6F1207FF80C737
:01058D00224B
:10011A0090E6B9E070030201F614700302029F240C
:10012A00FE700302033424FB70030201F01470030F
:10013A000201EA1470030201DE1470030201E424CE
:10014A000560030203A0120A7140030203AC90E6A1
:10015A00BBE024FE602C14604724FD601614603155
:10016A0024067066E52390E6B3F0E52490E6B4F041
:10017A000203ACE52B90E6B3F0E52C90E6B4F0026E
:10018A0003ACE52590E6B3F0E52690E6B4F0020369
:10019A00ACE52790E6B3F0E52890E6B4F00203ACAC
:1001AA0090E6BAE0FF120979AA06A9077B01EA4993
:1001BA004B600DEE90E6B3F0EF90E6B4F00203ACBC
:1001CA0090E6A0E04401F00203AC90E6A0E044010E
:1001DA00F00203AC120A380203AC120A650203AC3D
:1001EA001207CC0203AC120A260203AC120A7340AD
:1001FA00030203AC90E6B8E0247F602B14603C2431
:10020A00026003020295A200E433FF25E0FFA20286
:10021A00E4334F90E740F0E4A3F090E68AF090E6EA
:10022A008B7402F00203ACE490E740F0A3F090E68E
:10023A008AF090E68B7402F00203AC90E6BCE054BC
:10024A007EFF7E00E0D3948040067C007D0180041E
:10025A007C007D00EC4EFEED4F245BF582740A3E75
:10026A00F583E493FF3395E0FEEF24A1FFEE34E635
:10027A008F82F583E0540190E740F0E4A3F090E622
:10028A008AF090E68B7402F00203AC90E6A0E04498
:10029A0001F00203AC120A7540030203AC90E6B8FF
:1002AA00E024FE601D240260030203AC90E6BAE07B
:1002BA00B40105C2000203AC90E6A0E04401F002DA
:1002CA0003AC90E6BAE0705990E6BCE0547EFF7E3B
:1002DA0000E0D3948040067C007D0180047C007D90
:1002EA0000EC4EFEED4F245BF582740A3EF583E482
:1002FA0093FF3395E0FEEF24A1FFEE34E68F82F5FB
:10030A0083E054FEF090E6BCE05480FF13131354CC
:10031A001FFFE0540F2F90E683F0E04420F0020321
:10032A00AC90E6A0E04401F08078120A775073900E
:10033A00E6B8E024FE60202402706790E6BAE0B4D2
:10034A000104D200805C90E6BAE06402605490E650
:10035A00A0E04401F0804B90E6BCE0547EFF7E00B2
:10036A00E0D3948040067C007D0180047C007D00FF
:10037A00EC4EFEED4F245BF582740A3EF583E4935E
:10038A00FF3395E0FEEF24A1FFEE34E68F82F5837A
:10039A00E04401F0800C12058E500790E6A0E0447C
:0903AA0001F090E6A0E04480F0AF
:0103B3002227
:0300330002008C3C
:04008C0053D8EF3224
:1006820090E6007412F090E60174E3F0000000902E
:10069200E61274A0F0000000E490E613F0000000FF
:1006A20090E61474E0F0000000E490E615F000001B
:1006B2000090E6047480F00000007402F000000074
:1006C2007406F000000090E6187410F0000000902C
:1006D200E61A740CF0000000E490E604F00000005A
:1006E20090E6247402F0000000E490E625F0000099
:1006F2000090E60274E0F000000090E6037408F057
:1007020000000090E670E0F000000090E609E0448E
:1007120003F000000043B20F00000090E63474A121
:10072200F0000000E490E635F000000090E671F081
:1007320000000090E672F0000000F5B4000000F541
:0D074200B60000007580FF000000D2042208
:0107FF0022D7
:020A6D00D32292
:020A6F00D32290
:020A7100D3228E
:1007CC0090E680E030E71390E6247402F00000001D
:1007DC00E490E625F0000000801190E6247402F00D
:1007EC00000000E490E625F000000090E6BAE0F589
:0307FC001CD322E9
:100A260090E740E51CF0E490E68AF090E68B04F04F
:020A3600D322C9
:080A650090E6BAE0F51BD32274
:100A380090E740E51BF0E490E68AF090E68B04F03E
:020A4800D322B7
:020A7300D3228C
:020A7500D3228A
:020A7700D32288
:1008EF0090E6A0E020E1F990E68BE0F5180000001B
:1008FF0090E6047480F00000007406F0000000E43D
:0E090F00F000000090E740E0FF7E0012074F6E
:01091D0022B7
:10058E0090E6B9E0244D60321460731470030206D5
:10059E00251470030206442404600302067EA2049E
:1005AE00E43390E740F0E490E68AF090E68B04F0B6
:1005BE0090E6A0E04480F0020680E490E68AF09097
:1005CE00E68BF090E6BAE02440602314601C1470B1
:1005DE00211208EFC280000000D281000000C2810B
:1005EE00000000D281000000800BD2808007C28004
:1005FE0080031208EF90E6A0E04480F0807490E74C
:10060E0040E5A0F0E490E68AF090E68B04F090E6E8
:10061E00A0E04480F0805BE490E68AF090E68BF0F8
:10062E0090E6A0E020E1F990E740E0F5B190E6A079
:10063E00E04480F0803CE490E68AF090E68BF09007
:10064E00E6A0E020E1F990E68BE0FFE4FEEEC39F2A
:10065E0050153099FDC29974402EF582E434E7F5B9
:10066E0083E0F5990E80E690E6A0E04480F08002EB
:03067E00D322C3C1
:010681002256
:1009CA00C0E0C083C082D2015391EF90E65D74010A
:0809DA00F0D082D083D0E0329E
:1009FA00C0E0C083C0825391EF90E65D7404F0D0EA
:060A0A0082D083D0E0322F
:100A1000C0E0C083C0825391EF90E65D7402F0D0D5
:060A200082D083D0E03219
:10079500C0E0C083C08290E680E030E70E85212569
:1007A500852226852927852A28800C852925852ABD
:1007B500268521278522285391EF90E65D7410F058
:0707C500D082D083D0E032A6
:1009E200C0E0C083C082D2035391EF90E65D7408E9
:0809F200F0D082D083D0E03286
:1008B800C0E0C083C08290E680E030E70E85212545
:1008C800852226852927852A28800C852925852A99
:1008D800268521278522285391EF90E65D7420F024
:0708E800D082D083D0E03282
:010A7900324A
:010A7A003249
:010A7B003248
:010A7C003247
:010A7D003246
:010A7E003245
:010A7F003244
:010A80003243
:010A81003242
:010A82003241
:010A83003240
:010A8400323F
:010A8500323E
:010A8600323D
:010A8700323C
:010A8800323B
:010A8900323A
:010A8A003239
:010A8B003238
:010A8C003237
:010A8D003236
:010A8E003235
:010A8F003234
:010A90003233
:010A91003232
:010A92003231
:010A93003230
:010A9400322F
:010A9500322E
:010A9600322D
:010A9700322C
:010A9800322B
:010A9900322A
:010A9A003229
:010A9B003228
:010A9C003227
:10094D0090E682E030E004E020E60B90E682E030B5
:10095D00E119E030E71590E680E04401F07F147E68
:0C096D000012074F90E680E054FEF022DC
:1009A50090E682E044C0F090E681F04387010000C4
:0409B500000000221C
:10091E0030050990E680E0440AF0800790E680E01A
:10092E004408F07FDC7E0512074F90E65D74FFF001
:0F093E0090E65FF05391EF90E680E054F7F022DF
:10074F008E198F1A90E600E054187012E51A2401E2
:10075F00FFE43519C313F519EF13F51A801590E659
:10076F0000E05418FFBF100BE51A25E0F51AE51944
:10077F0033F519E51A151AAE19700215194E6005E1
:06078F001209B980EE2200
:02097900A907CC
:10097B00AE2DAF2E8F828E83A3E064037017AD0173
:10098B0019ED7001228F828E83E07C002FFDEC3EEF
:09099B00FEAF0580DF7E007F0045
:0109A4002230
:1009B9007400F58690FDA57C05A3E582458370F951
:0109C900220B
:03004300020800B0
:03005300020800A0
:100800000209CA00020A10000209FA000209E20005
:10081000020795000208B800020A7900020A7A006D
:10082000020A7B00020A7C00020A7D00020A7E00A6
:10083000020A7F00020A8000020A8100020A820086
:10084000020A8300020A7A00020A8400020A850072
:10085000020A8600020A8700020A8800020A89004A
:10086000020A8A00020A7A00020A7A00020A7A0060
:10087000020A8B00020A8C00020A8D00020A8E0016
:10088000020A8F00020A9000020A9100020A9200F6
:10089000020A9300020A9400020A9500020A9600D6
:1008A000020A9700020A9800020A9900020A9A00B6
:0808B000020A9B00020A9C00F1
:1000900012010002000000404705021000000102AA
:1000A00000010A06000200000040010009022000D1
:1000B000010100A0FA0904000002FF00000007058A
:1000C0000202000200070586020002000902200069
:1000D000010100A0FA0904000002FF00000007056A
:1000E0000202000200070586020002000403090460
:1000F00010034300520044005400450043004800F0
:1001000018034300520044002D003400320039002F
:0A0110002D005500530042000000CE
:030000000200807B
:0C008000787FE4F6D8FD75812E0203B4F1
:100A4A00EB9FF5F0EA9E42F0E99D42F0E89C45F002
:010A5A002279
:00000001FF
